:400000000080002011000000910400009104000008B5044B1A6803F53F5302331A6000F057FA00BFFA46004010B5054C237833B9044B13B10448AFF300800123237010BDFC
:400040004881FF1F00000000E0140000084B10B51BB108490848AFF300800848036803B910BD074B002BFBD0BDE81040184700BF000000004C81FF1FE0140000C880FF1F1A
:400080000000000008B50021402000F097FC0028F9D108BD08B50121402000F08FFC0028F9D108BD10B5FFF7EDFF352000F0E2FC00F0C4FCFFF7EEFF002000F007FD064C94
:4000C00002460649204600F0E7FD00F0B7FC204600F0A0FA10BD00BF6481FF1FE414000010B50446FFF7CEFF204600F0C3FC00F0A5FCFFF7CFFF002000F0E8FC044600F0AB
:400100009DFC204610BD00BF38B505460C46FFF7C1FF284600F0AEFC204600F0ABFC00F08DFC38BD08B5FF21EC20FFF7EDFF012000F0F8FC08BD00BF08B50021C820FFF771
:40014000E3FF08BD08B54521C920FFF7DDFF08BD08B50146CD20FFF7D7FF08BD08B50121CA20FFF7D1FF4FF4FA7000F0F7FC08BD08B50021CA20FFF7C7FF002000F0D2FC6D
:4001800008BD00BF08B50021EF20FFF7BDFF4021C820FFF7B9FF0021C820FFF7B5FF08BD08B50621EE20FFF7AFFF08BD10B50021EF20FFF7A9FFFF21EC20FFF7A5FF0321D5
:4001C000EF20FFF7A1FF2720FFF78AFF00F01000C4B20021EF20FFF797FF7F21EC20FFF793FF204610BD00BF10B5402803D1174800F010FA10BD04460F2803D9144800F06C
:4002000009FA10BD002000F08DFC4FF4FA7000F0BBFCFFF787FFFFF78FFFFFF793FF2046FFF796FFFFF79AFFFFF7A2FFFFF7AAFFFFF7B6FFFFF7BAFF064C0246064920461A
:4002400000F02AFD204600F0E5F910BDF4140000281500006481FF1F5C15000008B562B600F0BEF900F02EFA054800F0D3F9FFF719FF044800F0CEF90020FFF7B5FFFEE750
:400280008815000094150000FEE700BFF0B40022174611E050F82760F3B226F0FF0608E001EB420511F812406D78A5550132013BDBB2002BF4D101371A2FEBD9F0BC7047C8
:4002C000064B1B78DBB203F00701054A11701B09013213704422034B1A707047CF0100496E5800407658004008B50A46002100F0CAFC08BD38B54FF49C72244B1A8018229C
:4003000002331A70022203F27E231A7008224FF040231A70032103F5007319701C4B1B78DBB21C490B701C4B1A8041F25122023B1A80002419250CE0184B1B7803F001032C
:4003400043EA440404F003044FF4F07000F054FC013D0DB1032CEFD115B90320FFF794FF0F4B4FF480721A8007221A7000220D490A704820023108701A700222033B1A706E
:40038000094A137843F00103137038BD8040004008010049A146004022420040254200400440004006400040A243004008B500F05FFC08BD38B572B6284A137843F00403A4
:4003C000137000240CE0264D630019194A0011462A44084691882858FFF786FF0134E4B2082CF0D91F494FF09040FFF74FFF1E4A137843F0020313701032137843F00203BB
:4004000013701A4C237843F040032370A2F58632513A137843F0100313700A2214491548FFF7C4FF082214491448FFF7BFFF144A137843F008031370124D61232B70FFF7AD
:4004400059FF81232B7001220F4B1A70FFF738FF0E2221460D48FFF7A9FF38BDE84600409C1500006C00004803500140A04300404404004800510040500400481251004048
:40048000224300400048004004000840B043004008B500F0C1FB03680C2B00D1FEE7FEE708B5094B1A681044084BC31A802B02DC054B186005E000F0AFFB0C2303604FF032
:4004C000FF32104608BD00BFCC80FF1F9881FF1F08B5104E104D16E029686B68AC68002204E051F8040B43F8040B0432A242F8D1E868002203E0002143F8041B0432824215
:40050000F9D11035013E002EE6D100F08BFBFFF7A5FEFEE7010000002C16000008B5104A104B1A60104A136843F40073136000230AE0032B03D80D4A52F8231000E00C4954
:400540000C4A42F8231001332F2BF2D90A4B1A780A4B1A70074A0A4B1A60FFF72BFF08BD0004FA050CED00E014ED00E000000000910400000080FF1FBC760040C080FF1FD4
:4005800008ED00E07222074B1A70202204331A700622613B1A70472210331A7000224E331A7070478164004010B500F02DFB04460A4A137843F0200313700432137843F093
:4005C00010031370033A137843F01003137000F0B5FA204600F01CFB10BD00BF9164004008B5054B1B7823B9FFF7CCFF0122024B1A70FFF7D9FF08BD7181FF1F034B1B784C
:4006000013F0040FFAD1024B18707047626400404064004038B5074B1B782BB938BDFFF7EDFF0134A4B201E005460024285D0028F5D138BD7181FF1F10B50222114B1A70B4
:4006400081220E3B1A70082202331A70042211331A70002401331C704FF400420A4B1A6007210F2000F0AEFA08490F2000F096FA1022074B1A70074B1C70074B1C70074BE4
:400680001C7010BDD649004080E100E0ED0600007C81FF1F8281FF1F8A81FF1F8081FF1F08B500F0B1FA064A137843F0040313701032137843F00403137000F0A9FA08BDF8
:4006C000A543004008B5074B1B7823B9FFF7B4FF0122044B1A70FFF7E3FF4FF40042024B1A6008BD7381FF1F00E100E038B5A54B1C78A54B1B7813F0400F00F03A81E4B26C
:4007000014F0010F00F01D819F4B1B78453B052B00F21481DFE813F006008200120112010600DF0004F0DF0504F00A04082C42D1954B1B78DBB2452B35D1944B1B7813F0FA
:40074000FF0F10D0924B1B681B78DBB2914A137004228C4B1A7001228F4B1A7046228A4B1A702C46EDE08D4B1B7813F0020F0DD08B4A137843F00A0313706022824B1A7041
:400780004FF40042874B1A602C46DAE0864A137843F0100313701022844B1A700422023B1A702C46CDE00022764B1A704A22764B1A702C46C5E00A2C2BD1794A137843F093
:4007C000A0031370754B1B7813F0020F14D06E4B1B7813F0080F01D0092300E00A23704A11780B4313706022674B1A704FF400426C4B1A602C46A4E06B4A137843F0100314
:4008000013701022694B1A700422023B1A702C4697E0002000F0A0F92C4692E014F0020F36D15D4B1A78D2B2584B1B78DBB29A4210D2594A1378DBB255490968CB5CDBB289
:4008400054490B7004214F4B197013780133DBB2137076E0514B1B7813F0020F0CD0504A137843F00A0313706022474B1A704FF400424C4B1A6064E04B4A137843F010030E
:4008800013701022494B1A700422023B1A7058E0424B1B7813F0020F0CD0414A137843F09A0313706022384B1A704FF400423D4B1A6046E03C4A137843F01003137010227F
:4008C0003A4B1A700422023B1A70354A137843F09003137035E0364A1378DBB2354908682C490978C9B2C15413780133DBB213701278D2B2304B1B78DBB29A4203D210222D
:40090000204B1A701DE0254B1B7813F0020F0CD0234A137843F00903137060221A4B1A704FF400421F4B1A600BE01F4A137843F0100313700022134B1A7002E0002000F09A
:400940000BF914F0200F1CD00F4B1B7813F0080F01D0012300E00223114A11780B431370114A137803F0EF0313701022064B1A7038BD054B1B7813F0100F02D11022024BF7
:400980001A7038BDD74900407C81FF1F8181FF1F8C81FF1FD84900408081FF1F8881FF1F8281FF1F80E100E0D6490040D94900408A81FF1F8481FF1F8981FF1F1A4B1B78BC
:4009C000DBB2102B29D1194B1B7813F0080F26D14FF40042164B1A604000C0B229B140F001004922104B1A7002E045220E4B1A70104B1870012201331A700F4B1B7813F0E0
:400A0000010FFAD00C4B1B7803F00A030A2B08D11022054B1A700320704702207047012070470020704700BF7C81FF1FD949004080E100E0D8490040D74900400A4B1B7850
:400A400013F0040F0ED01023074A13700421023A1170064A1370064B1B7813F0210FFAD00020704702207047D94900407C81FF1FD7490040114B1B7813F0040F1BD0104B0D
:400A800018700422013B1A7046220E4B1A700E4B1B7813F0010FFAD00B4B1B7813F0020F04D16022074B1A70002070476022054B1A70032070470220704700BFD949004077
:400AC000D84900407C81FF1FD7490040114B1B7813F0040F1BD0104B1B78DBB2492B05D100220E4B1A704A220B4B1A700B4B1B7813F0010FFAD00A4B1B78DBB218B11021DF
:400B0000064A117004E06021034A117000E0002318467047D94900407C81FF1FD7490040D8490040044A137803F0EF03000100F0100018431070704700510040054A13789F
:400B400043F0010313701032137843F001031370704700BFA243004001BE704710B5044605E0084B186800F047F8A4F50044B4F5004FF6D8034B586800FB04F000F03CF869
:400B800010BD00BFD080FF1F08B5034B1B7A00FB03F000F031F808BDD080FF1F70B504460E46074B1D681F2802D90020FFF7D4FF04F01F04103455F8240045F8246070BD02
:400BC00008ED00E038B504460D46072902D90020FFF7C2FF1F2C02D90020FFF7BDFF04F01F0000F1604000F564406D01EDB2057038BD00BF000000000230800803D000BFFD
:400C000001380046FCD17047EFF3108072B6704780F31088704700BF014B1868704700BF4081FF1F0E4B70B51E460E4C0025E41AA410A54204D056F8253098470135F8E759
:400C400000F0E2FC084B094C1E46E41AA4100025A54204D056F8253098470135F8E770BD1416000014160000141600001C16000010B5431E0A44914204D011F8014B03F829
:400C8000014FF8E710BD03460244934202D003F8011BFAE7704700000EB400B54FF402719CB0ADF814106FF00041049107914FF6FF711DAB02900690084853F8042BADF830
:400CC0001610006802A9019300F064F8029B00221A701CB05DF804EB03B070474081FF1F2DE9F0478E6882469E420C46914698463ED88A8912F4906F3AD0256809690223EB
:400D00006F1A656905EB450595FBF3F57B1C43449D4238BF1D4653050FD5294600F040FB064698B13A462169FFF7A2FFA38923F4906343F08003A38113E02A4600F08EFB5B
:400D4000064670B92169504600F0DEFA0C23CAF80030A3894FF0FF3043F04003A381BDE8F08726613E44266046466561ED1BA560464528BF464649463246206800F0A8FA98
:400D8000A36800209B1BA36023681E442660BDE8F08700002DE9F04F9DB003938B8980461C060D4616460DD50B695BB9402100F0F7FA2860286118B90C23C8F80030CDE083
:400DC00040236B610023099320238DF82930DFF89CB130238DF82A3037463C4614F8013B1BB9B7EB060910D003E0252BF9D02746F3E74B46324629464046FFF771FF01300A
:400E000000F0A780099B4B4409933B78002B00F0A08000234FF0FF3204930793059206938DF853301A930126052221784E4800F041FA671C049B38B14B4A3C46801A06FAD1
:400E400000F018430490EFE7D90644BF20228DF853201A0744BF2B228DF8532022782A2A03D0079A00210A200BE0039A111D12680391002A10DA524243F0020007920490BD
:400E80000BE027463B780134303B092B03D800FB02320121F5E701B107923B782E2B1ED17B782A2B0AD1039B02371A1D1B680392002BB8BF4FF0FF33059310E0002319469F
:400EC0000593781C0A2407463A780130303A092A03D804FB01210123F5E703B1059103223978224800F0E6F940B14023CBEB000003FA00F0049B01371843049039780622E0
:400F00001B487E1C8DF8281000F0D4F988B1194B33B9039B073323F007030833039314E003AB00932A46144B04A94046AFF3008007E003AB00932A460F4B04A9404600F07D
:400F400093F8B0F1FF3F824603D0099B5344099342E7AB895B0601D4099801E04FF0FF301DB0BDE8F08F00BFD4150000DA150000DE15000000000000E10C00002DE9F0475D
:400F800091461F460A698B6806469342B8BF1346C9F8003091F843200C46DDF8208012B10133C9F800302368990642BFD9F800300233C9F80030256815F0060510D104F14D
:400FC000190A07E00123524639463046C04701301AD00135E368D9F800209B1A9D42F1DB94F843302268003318BF012392060FD5E118302081F843005A1C94F8451022444D
:40100000023382F8431003E04FF0FF30BDE8F08704F1430239463046C0470130F4D02268D9F80050E36802F00602042A08BF5D1B2269A3680CBF25EAE57500259342C4BF72
:401040009B1AED184FF000091A344D4509D00123224639463046C0470130D5D009F10109F3E70020BDE8F0872DE9F04317460A7E85B06E2A984606460C460C9B01F1430EDC
:4010800000F0AE8011D8632A22D009D8002A00F0BB80582A40F0CA8081F84520834955E0642A1ED0692A1CD0C0E0732A00F0B08009D86F2A2ED0702A40F0B8800A6842F023
:4010C00020020A603EE0752A24D0782A3AD0ADE01A6801F14205111D1960136884F84230A8E021681A6811F0800F02D0111D196008E011F0400F02F10401196002D0B2F9ED
:40110000003000E01368002B3CDA2D225B4284F8432037E021681A6811F0800F02D0111D196007E011F0400F02F10401196001D0138800E01368227E5C496F2A14BF0A22A1
:4011400008221BE078225A4984F845202268186812F0800F00F104051D6003D1550601D5038800E00368D00744BF42F0200222601BB9226822F0200222601022002084F8AD
:40118000430001E049490A226568002DA56008DB206820F0040020602BB9002D7DD175460CE0002B79D07546B3FBF2F002FB1033CB5C05F8013D03460028F5D1082A0BD1A3
:4011C0002368DA0708D5236962689A42DEBF302305F8013C05F1FF35C5EB0E0323612EE008681A6810F0800F496903D0101D1860136808E010F0400F02F104001860136886
:4012000001D0198000E0196000232361754616E01A68111D1960156800216268284600F049F808B1401B6060636804E004F1420584F8422001232361002384F84330CDF847
:4012400000803B4603AA21463046FFF797FE013002D14FF0FF3026E023692A4639463046C0470130F5D023689B0710D5002504F1190907E001234A4639463046C0470130DC
:40128000E7D00135E368039A9B1A9D42F2DBE068039B9842B8BF184605E00B7804F1420584F842308AE705B0BDE8F083E5150000F615000010B5C9B202449042034605D018
:4012C0001C7801308C42F8D1184610BD002010BD884210B501EB020301D8421E0BE09842FBD28118D21AD34204D013F8014D01F8014DF8E710BD994204D011F8014B02F877
:40130000014FF8E710BD000038B50546002944D051F8043C0C1F002BB8BFE41800F0D4F81E4A1368114613B96360146030E0A3420DD92268A018834201BF18685B681218E2
:40134000226063600C6023E0A24203D813465A68002AF9D118681918A1420BD12168014458188242196013D110685268014419605A600DE002D90C232B6009E02168601806
:40138000824201BF106852680918216062605C602846BDE8384000F098B838BD7881FF1F70B5CD1C25F0030508350C2D38BF0C25002D064601DBA94202D90C23336046E0B4
:4013C00000F082F8234B1C681A462146A1B10B685B1B0ED40B2B03D90B60CC18CD501EE08C420BBF63684B681360636018BF0C4615E00C464968E9E7174C23681BB93046BC
:4014000000F052F820602946304600F04DF8431C18D0C41C24F00304A0420DD12560304600F053F804F10B00231D20F00700C31A0ED05A42E25070BD211A304600F034F8C6
:401440000130EBD10C233360304600F03EF8002070BD00BF7881FF1F7481FF1FF8B5074615460E4621B91146BDE8F840FFF798BF1AB9FFF749FF2846F8BD00F027F88542DD
:401480000ED929463846FFF78BFF044650B131462A46FFF7EDFB31463846FFF735FF01E03046F8BD2046F8BD38B5064C0023054608462360FEF7F4FF431C02D1236803B1AB
:4014C0002B6038BD9081FF1F7047704751F8040C0028BEBF091851F8043CC0180438704700000000736869667420253032580A0D000000005B4552524F525D205468652085
:401500006E65772061646472657373206D757374206265206F74686572207468616E2030783038210D0A00005B4552524F525D20546865206E657720616464726573732003
:401540006D7573742062652030783066206F72206C6F776572210D0A00000000655F667573655F73746167653928293A726573756C74203D3E2025642028303D73756363E7
:40158000657373290D0A0000496E696369616E646F0D0A0053616C696F0D0A00C84900401900205100405000C05100401000F05100401000000001400010001401400008E1
:4015C00000400140000A004C014000020050014020004300232D302B2000686C4C00656667454647003031323334353637383941424344454600303132333435363738393F
:401600006162636465660000F8B500BFF8BC08BC9E4670474D0000001D050000F8B500BFF8BC08BC9E4670472900000040160000C880FF1F80000000500000000000000033
:40164000000000009881FF1F0000E02EC05D00001800000000366E010000000000000000000000000000000000000000000000000000000000000000D21500000000000064
:401680000000000000000000000000000000000000000000000000000000000000000000000000000000000000000000000000000000000000000000E080FF1F00000000AC
:4016C00000000000000000000000000000000000000000000000000000000000000000000000000000000000000000000000000000000000000000000000000000000000EA
:4017000000000000000000000000000000000000000000000000000000000000000000000000000000000000000000000000000000000000000000000000000000000000A9
:401740000000000000000000000000000000000000000000000000000000000000000000000000000000000000000000000000000000000000000000000000000000000069
:401780000000000000000000000000000000000000000000000000000000000000000000000000000000000000000000000000000000000000000000000000000000000029
:020000040003F7
:0200000480007A
:400000000352004003640040410001402A0101405202014048030140540401404B0501400107014001090140020B0140010D014001150140011B0140024001400B41014056
:400040000B4201400343014002450140044601400547014001480140024901400B4C0140014D014003500140025101400002010604018172820F85380403060C0E05140ACD
:40008000160418031A041E0820032204340F3A2040654102450B460C470E481549FF4AFF4BFF4EF04F44500C58045A045F0166C06A406B028110840187E389C08D80913CA3
:4000C000920293C2940495E797189A029B049D44A1FFA401A508A918AC01AD1CAFE1B11FB201B404B538B602B7C0BB02BE50D602D712D804D904DB04DF01020203200710E6
:400100000A260C080D200F80108015401704180819201B201D481E082521260127022C402E282F0236A93D983E024204450C49284A0250885C046D646F14762AC025C27785
:40014000C4A8CAF0CCF0CEF0D004D20CD64000040101020204010518080109180C080E021110130C14021501160C180E19012201240E250827142B022D012E013106320E11
:4001800035013601371838803F11406341044202440146EC480C49FF4AFF4BFF4C624DA04EF04F41500C5401580459045A045B045F016640670269106A306B106D106E1021
:4001C0006F1283038501860187068E018F08930C9801990C9B03A201A501A70EA801AD10B001B110B50FBB20BE01BF01D804D904DF01000802030516070108100A040E20AC
:400200000F0410801204154117041A401E211F08204821102210240425402741281029802D502F2A321135343608370138883A053D273F0444E0452847404E0857505E48DA
:400240005F11808081208C4090089104930194049510962699489A2A9B069C40A080A139A204A540A6AAA742A808AB01C0F5C262C4BACA7ACCE5CEEBD0F0D220D6F0E2400C
:40028000E42004140507081009020AAC0B040E03180C19081A711B011C091ED020102240262028DC29072A22310C330334E0361F390A3A203F044003460449FF4A074BFF9A
:4002C0004C404D204EF04F055008580459045A045F01604061A8624063208110840C8508880489188C0C8D048E02950696019718980E9B069D029E019F01A00CA118A20233
:40030000A306A51EA602A802A906AA0CAC08AD1EB00EB201B31EB501BA22BB08BE04D418D604D804D904DB04DF0101880204044006280A060D200E010F2010201110124065
:40034000142015011602172019A01A041C401D301F26210422012628272029202D012F2A302034203688380839303D803E2A41044820504052405F026440654067088020BA
:400380008202844090089121920194809606982099489A2E9B029D90A140A280A318A62AA702AC80AD02AE80AF30C0E7C2E3C4FECAF4CC74CEF6D002D680D8B0E602E801CD
:4003C000EA08EA08E602E801E420EA01EA013140CC10038106045080510156028B018E029D40C0D0D4A0D6203E10854195029D40A480AA04AF80CE20E650E880EC1096106F
:40040000AC80EA108801E404850490019801A8019001950498019F08AF089610AA10EA8011041320170878017C019001950498019F08C40EDE03AB20000108010A01000381
:4004400003C00000020001727E000E0000000000000B0B000000000000000000000000000000000000000000000000000000000000000000000000000000000000000000A2
:40048000000000000000000000000000000000000000000000000000000000000000000000000000000000000000000000000000000000000000000000000000000000003C
:4004C00000000000000000000000000000000000000000000000000000000000000000000000000000000000000000000000000000000000000000000000000000000000FC
:4005000000000000000000000000000000000000000000000000000000000000000000000000000000000000000000000000000000000000000000000000000000000000BB
:40054000000000000000000000000000000000000000000000000000000000000000000000000000000000000000000000000000000000000000000000000000000000007B
:0200000490006A
:0400000000004005B7
:0200000490105A
:04000000BC90ACAF55
:0200000490303A
:02000000595F46
:0200000490402A
:4000000000000000000000000000000000000000000000000000000000000000000000000000000000000000000000000000000000000000000000000000000000000000C0
:400040000000000000000000000000000000000000000000000000000000000000000000000000000000000000000000000000000000000000000000000000000000000080
:400080000000000000000000000000000000000000000000000000000000000000000000000000000000000000000000000000000000000000000000000000000000000040
:4000C0000000000000000000000000000000000000000000000000000000000000000000000000000000000000000000000000000000000000000000000000000000000000
:0200000490501A
:0C00000000012E16106900012E1F69C8B7
:00000001FF