:400000000080002011000000850700008507000008B5044B1A6803F53F5302331A6000F0D1FB00BFFA46004010B5054C237833B9044B13B10448AFF300800123237010BD93
:400040004881FF1F0000000008190000084B10B51BB108490848AFF300800848036803B910BD074B002BFBD0BDE81040184700BF000000004C81FF1F08190000C880FF1FC0
:400080000000000008B500F035FC024B18701B7808BD00BF8081FF1F08B50121402000F047FE0028F9D108BD08B50021402000F03FFE0028F9D108BD10B5FFF7F5FF352006
:4000C00000F092FE00F074FEFFF7E6FF002000F0B7FE064C02460649204600F0F1FF00F067FE204600F028FC10BD00BF6481FF1F0C19000038B5FFF7D7FF5E2000F074FE33
:4001000000F056FEFFF7C8FF002000F099FE0546002000F095FE044600F04AFE14EB051400D53F34A411014B1C7338BD6481FF1F10B50446FFF7B8FF204600F055FE00F06A
:4001400037FEFFF7A9FF002000F07AFE044600F02FFE204610BD00BF38B505460C46FFF7A3FF284600F040FE204600F03DFE00F01FFE38BD08B5FF21EC20FFF7EDFFCE20C1
:4001800000F002FF08BD00BF08B53721C820FFF7E3FF08BD08B57421C920FFF7DDFF08BD08B50421CD20FFF7D7FF08BD08B50121CA20FFF7D1FF4FF4FA7000F093FE08BD7C
:4001C00008B50021CA20FFF7C7FF002000F0DCFE08BD00BF08B5FF21EC20FFF7BDFFCE2000F0D2FE08BD00BF08B53F21C820FFF7B3FF08BD08B50421C920FFF7ADFF08BD9C
:4002000008B50121CD20FFF7A7FF08BD08B50121CA20FFF7A1FF4FF4FA7000F063FE08BD08B50021CA20FFF797FF002000F0ACFE08BD00BF08B50021EF20FFF78DFF40210D
:40024000C820FFF789FF0021C820FFF785FF08BD08B50621EE20FFF77FFF08BD70B5FF21EC20FFF779FF0321EF20FFF775FF1820FFF75EFF05461920FFF75AFF06461A4C39
:400280002A461A49204600F01BFF204600F054FB32461749204600F013FF204600F04CFB822D11D186B92646124D0FCD0FC40FCD0FC495E8070003C424F8022B120C22703C
:4002C000304600F039FB70BD074E34460A4D0FCD0FC40FCD0FC495E8030084E80300304600F02AFB70BD00BF6481FF1F1C19000030190000441900007019000008B5FF2109
:40030000EC20FFF729FFCE2000F03EFE08BD00BF08B50021C820FFF71FFF08BD08B54521C920FFF719FF08BD08B50146CD20FFF713FF08BD08B50121CA20FFF70DFF4FF4AB
:40034000FA7000F0B9FD08BD08B50021CA20FFF703FF002000F018FE08BD00BF08B50021EF20FFF7F9FE4021C820FFF7F5FE0021C820FFF7F1FE08BD08B50621EE20FFF797
:40038000EBFE08BD10B50021EF20FFF7E5FEFF21EC20FFF7E1FE0321EF20FFF7DDFE2720FFF7C6FE00F01F040021EF20FFF7D4FE7F21EC20FFF7D0FE012C01D1012010BD53
:4003C000002010BD10B5402803D1334800F0B4FA10BD04460F2803D9304800F0ADFA10BD002000F0D1FD4FF4FA7000F07BFDFFF785FF2B4800F0A0FAFFF78AFF294800F0A6
:400400009BFAFFF78BFF284800F096FA2046FFF78BFF264800F090FAFFF78CFF244800F08BFAFFF791FF234800F086FAFFF796FF214800F081FAFFF79FFF204800F07CFA65
:40044000FFF7A0FF044602461D491E4800F038FEECB1FFF78FFEFFF797FEFFF79BFEFFF79FFEFFF7A3FEFFF7ABFEFFF7B3FEFFF7BBFEFFF7BFFEFFF7C3FEFFF7C7FEFFF7EF
:40048000CFFEFFF7D7FEFFF7E3FEFFF7E7FE0D4800F052FA10BD00BF98190000CC190000001A00000C1A0000181A0000241A0000301A00003C1A0000481A0000541A00001F
:4004C000601A00006481FF1F08B562B600F004FA00F0B2FA00F090FD002000F055FD104800F056FA0F4800F027FAFFF7E5FDFFF701FE0D4C227B0D49204600F0E1FD20468E
:4005000000F01AFA4FF4FA5000F0D6FC084800F013FA0020FFF756FF064800F00DFAFEE785000000801A00006481FF1F8C1A0000941A0000A41A0000FEE700BFF0B40022E8
:40054000174611E050F82760F3B226F0FF0608E001EB420511F812406D78A5550132013BDBB2002BF4D10137132FEBD9F0BC70470A4B1B78DBB203F00701094A11701B0954
:40058000013213700422074B1A70012203F65F131A704422A3F225231A707047CF0100496E5800403C51004008B50A46002100F07EFD08BD38B54FF49C72244B1A8018221C
:4005C00002331A70022203F27E231A7008224FF040231A70032103F5007319701C4B1B78DBB21C490B701C4B1A8041F25122023B1A80002419250CE0184B1B7803F001036A
:4006000043EA440404F003044FF4F07000F008FD013D0DB1032CEFD115B90320FFF78CFF0F4B4FF480721A8007221A7000220D490A704820023108701A700222033B1A70FE
:40064000094A137843F00103137038BD8040004008010049A146004022420040254200400440004006400040A243004008B500F013FD08BD38B572B6334A137843F0040321
:40068000137000240CE0314D630019194A0011462A44084691882858FFF786FF0134E4B20A2CF0D900240BE02849A3001819420088188022816C406CFFF7D8FF0134E4B250
:4006C000002CF1D022494FF09040FFF737FF214A137843F0020313701032137843F0020313701D4C237843F040032370A2F58632513A137843F01003137008221749184809
:40070000FFF7B4FF082217491748FFF7AFFF0A2216491748FFF7AAFF164A137843F008031370154D61232B70FFF744FF81232B700122124B1A70FFF71BFF0E22214610484C
:40074000FFF794FF38BD00BFE8460040B01A00005000004803500140A043004054030048125100405C03004822510040640300483051004022430040004800400400084030
:40078000B043004008B500F05BFC03680C2B00D1FEE7FEE708B5094B1A681044084BC31A802B02DC054B186005E000F049FC0C2303604FF0FF32104608BD00BFCC80FF1FFD
:4007C0009881FF1F08B5104E104D16E029686B68AC68002204E051F8040B43F8040B0432A242F8D1E868002203E0002143F8041B04328242F9D11035013E002EE6D100F064
:4008000025FCFFF761FEFEE701000000581B000008B5104A104B1A60104A136843F40073136000230AE0032B03D80D4A52F8231000E00C490C4A42F8231001332F2BF2D9D0
:400840000A4B1A780A4B1A70074A0A4B1A60FFF711FF08BD0004FA050CED00E014ED00E000000000850700000080FF1FBC760040C080FF1F08ED00E07222074B1A700023A8
:40088000064A13700621613A11704721103211704F321370704700BF876500408665004010B500F0C5FB04460A4A137843F020031370013A137843F010031370023A137859
:4008C00043F01003137000F0E7FA204600F0B4FB10BD00BF9765004008B5054B1B7823B9FFF7CAFF0122024B1A70FFF7D9FF08BD7181FF1F084B1B78DBB213F0200F06D03E
:40090000064A1078C0B213F01E0F02D17047002070470020704700BF6665004047650040034B1B7813F0040FFAD1024B18707047646500404465004038B5074B1B782BB959
:4009400038BDFFF7EDFF0134A4B201E005460024285D0028F5D138BD7181FF1F014B1B681864704708ED00E04001C0B2014B1870704700BF00E400E00122014B1A60704715
:4009800000E100E00122014B1A60704780E100E010B50446FFF7F6FF2046FFF7DFFF0720FFF7E2FFFFF7E8FF10BD00BF10B50222114B1A7081220E3B1A70082202331A70CC
:4009C000042211331A70002401331C704FF400420A4B1A6007210F2000F0A2FA08490F2000F08AFA1022074B1A70074B1C70074B1C70074B1C7010BDD649004080E100E0DF
:400A0000610A00008181FF1F8681FF1F8E81FF1F8481FF1F08B500F00BFB064A137843F0040313701032137843F00403137000F003FB08BDA543004008B5074B1B7823B988
:400A4000FFF7B4FF0122044B1A70FFF7E3FF4FF40042024B1A6008BD7381FF1F00E100E038B5A54B1C78A54B1B7813F0400F00F03A81E4B214F0010F00F01D819F4B1B786F
:400A8000453B052B00F21481DFE813F006008200120112010600DF0004F0DF0504F00A04082C42D1954B1B78DBB2452B35D1944B1B7813F0FF0F10D0924B1B681B78DBB228
:400AC000914A137004228C4B1A7001228F4B1A7046228A4B1A702C46EDE08D4B1B7813F0020F0DD08B4A137843F00A0313706022824B1A704FF40042874B1A602C46DAE02F
:400B0000864A137843F0100313701022844B1A700422023B1A702C46CDE00022764B1A704A22764B1A702C46C5E00A2C2BD1794A137843F0A0031370754B1B7813F0020F7F
:400B400014D06E4B1B7813F0080F01D0092300E00A23704A11780B4313706022674B1A704FF400426C4B1A602C46A4E06B4A137843F0100313701022694B1A700422023BC7
:400B80001A702C4697E0002000F094F92C4692E014F0020F36D15D4B1A78D2B2584B1B78DBB29A4210D2594A1378DBB255490968CB5CDBB254490B7004214F4B197013787D
:400BC0000133DBB2137076E0514B1B7813F0020F0CD0504A137843F00A0313706022474B1A704FF400424C4B1A6064E04B4A137843F0100313701022494B1A700422023B40
:400C00001A7058E0424B1B7813F0020F0CD0414A137843F09A0313706022384B1A704FF400423D4B1A6046E03C4A137843F01003137010223A4B1A700422023B1A70354AB6
:400C4000137843F09003137035E0364A1378DBB2354908682C490978C9B2C15413780133DBB213701278D2B2304B1B78DBB29A4203D21022204B1A701DE0254B1B7813F02C
:400C8000020F0CD0234A137843F00903137060221A4B1A704FF400421F4B1A600BE01F4A137843F0100313700022134B1A7002E0002000F0FFF814F0200F1CD00F4B1B780C
:400CC00013F0080F01D0012300E00223114A11780B431370114A137803F0EF0313701022064B1A7038BD054B1B7813F0100F02D11022024B1A7038BDD74900408181FF1F85
:400D00008581FF1F9081FF1FD84900408481FF1F8C81FF1F8681FF1F80E100E0D6490040D94900408E81FF1F8881FF1F8D81FF1F1A4B1B78DBB2102B29D1194B1B7813F056
:400D4000080F26D14FF40042164B1A604000C0B229B140F001004922104B1A7002E045220E4B1A70104B1870012201331A700F4B1B7813F0010FFAD00C4B1B7803F00A0354
:400D80000A2B08D11022054B1A700320704702207047012070470020704700BF8181FF1FD949004080E100E0D8490040D74900400A4B1B7813F0040F0ED01023074A137091
:400DC0000421023A1170064A1370064B1B7813F0210FFAD00020704702207047D94900408181FF1FD7490040114B1B7813F0040F1BD0104B18700422013B1A7046220E4B4B
:400E00001A700E4B1B7813F0010FFAD00B4B1B7813F0020F04D16022074B1A70002070476022054B1A70032070470220704700BFD9490040D84900408181FF1FD749004047
:400E4000114B1B7813F0040F1BD0104B1B78DBB2492B05D100220E4B1A704A220B4B1A700B4B1B7813F0010FFAD00A4B1B78DBB218B11021064A117004E06021034A117033
:400E800000E0002318467047D94900408181FF1FD7490040D8490040054A137843F0010313701032137843F001031370704700BFA243004001BE704710B5044605E0084B64
:400EC000186800F0ADF8A4F50044B4F5004FF6D8034B586800FB04F000F0A2F810BD00BFD080FF1F08B5034B1B7A00FB03F000F097F808BDD080FF1F70B504460E46074B64
:400F00001D681F2802D90020FFF7D4FF04F01F04103455F8240045F8246070BD08ED00E038B504460D46072902D90020FFF7C2FF1F2C02D90020FFF7BDFF04F01F0000F12A
:400F4000604000F564406D01EDB2057038BD00BF054A137843F0080313701032137843F008031370704700BFA8430040054B1A7802F0FD021A701A7800F00200104318707C
:400F8000704700BF2C580040014B1870704700BF835B0040064B1B78C3F3810303F19243063393F83831DBB2024A1370704700BF2C5800400B46004008B5064B1A7802F0C2
:400FC000F3021A701A7800F00C0010431870FFF7E1FF08BD2C58004008B50023054A1370013213700420FFF7E7FF0220FFF7BEFF08BD00BF2C58004008B5074B1B7823B9A7
:40100000FFF7EAFF0122044B1A70FFF7A1FF6420FFF7BAFF08BD00BF7481FF1F000000000230800803D000BF01380046FCD17047EFF3108072B6704780F31088704700BF54
:40104000014B1868704700BF4081FF1F0E4B70B51E460E4C0025E41AA410A54204D056F8253098470135F8E700F064FD084B094C1E46E41AA4100025A54204D056F8253058
:4010800098470135F8E770BD401B0000401B0000401B0000481B000010B5431E0A44914204D011F8014B03F8014FF8E710BD03460244934202D003F8011BFAE7704700004F
:4010C0000EB400B54FF402719CB0ADF814106FF00041049107914FF6FF711DAB02900690084853F8042BADF81610006802A9019300F064F8029B00221A701CB05DF804EB5B
:4011000003B070474081FF1F2DE9F0478E6882469E420C46914698463ED88A8912F4906F3AD02568096902236F1A656905EB450595FBF3F57B1C43449D4238BF1D46530560
:401140000FD5294600F040FB064698B13A462169FFF7A2FFA38923F4906343F08003A38113E02A4600F08EFB064670B92169504600F0DEFA0C23CAF80030A3894FF0FF30B7
:4011800043F04003A381BDE8F08726613E44266046466561ED1BA560464528BF464649463246206800F0A8FAA36800209B1BA36023681E442660BDE8F08700002DE9F04FA4
:4011C0009DB003938B8980461C060D4616460DD50B695BB9402100F0F7FA2860286118B90C23C8F80030CDE040236B610023099320238DF82930DFF89CB130238DF82A30A2
:4012000037463C4614F8013B1BB9B7EB060910D003E0252BF9D02746F3E74B46324629464046FFF771FF013000F0A780099B4B4409933B78002B00F0A08000234FF0FF32C3
:4012400004930793059206938DF853301A930126052221784E4800F041FA671C049B38B14B4A3C46801A06FA00F018430490EFE7D90644BF20228DF853201A0744BF2B22B2
:401280008DF8532022782A2A03D0079A00210A200BE0039A111D12680391002A10DA524243F00200079204900BE027463B780134303B092B03D800FB02320121F5E701B122
:4012C00007923B782E2B1ED17B782A2B0AD1039B02371A1D1B680392002BB8BF4FF0FF33059310E0002319460593781C0A2407463A780130303A092A03D804FB01210123AD
:40130000F5E703B1059103223978224800F0E6F940B14023CBEB000003FA00F0049B013718430490397806221B487E1C8DF8281000F0D4F988B1194B33B9039B073323F0F7
:4013400007030833039314E003AB00932A46144B04A94046AFF3008007E003AB00932A460F4B04A9404600F093F8B0F1FF3F824603D0099B5344099342E7AB895B0601D4B5
:40138000099801E04FF0FF301DB0BDE8F08F00BF001B0000061B00000A1B000000000000091100002DE9F04791461F460A698B6806469342B8BF1346C9F8003091F8432055
:4013C0000C46DDF8208012B10133C9F800302368990642BFD9F800300233C9F80030256815F0060510D104F1190A07E00123524639463046C04701301AD00135E368D9F84A
:4014000000209B1A9D42F1DB94F843302268003318BF012392060FD5E118302081F843005A1C94F845102244023382F8431003E04FF0FF30BDE8F08704F143023946304699
:40144000C0470130F4D02268D9F80050E36802F00602042A08BF5D1B2269A3680CBF25EAE57500259342C4BF9B1AED184FF000091A344D4509D00123224639463046C04789
:401480000130D5D009F10109F3E70020BDE8F0872DE9F04317460A7E85B06E2A984606460C460C9B01F1430E00F0AE8011D8632A22D009D8002A00F0BB80582A40F0CA8023
:4014C00081F84520834955E0642A1ED0692A1CD0C0E0732A00F0B08009D86F2A2ED0702A40F0B8800A6842F020020A603EE0752A24D0782A3AD0ADE01A6801F14205111D38
:401500001960136884F84230A8E021681A6811F0800F02D0111D196008E011F0400F02F10401196002D0B2F9003000E01368002B3CDA2D225B4284F8432037E021681A684E
:4015400011F0800F02D0111D196007E011F0400F02F10401196001D0138800E01368227E5C496F2A14BF0A2208221BE078225A4984F845202268186812F0800F00F104053E
:401580001D6003D1550601D5038800E00368D00744BF42F0200222601BB9226822F0200222601022002084F8430001E049490A226568002DA56008DB206820F00400206061
:4015C0002BB9002D7DD175460CE0002B79D07546B3FBF2F002FB1033CB5C05F8013D03460028F5D1082A0BD12368DA0708D5236962689A42DEBF302305F8013C05F1FF3570
:40160000C5EB0E0323612EE008681A6810F0800F496903D0101D1860136808E010F0400F02F104001860136801D0198000E0196000232361754616E01A68111D196015684F
:4016400000216268284600F049F808B1401B6060636804E004F1420584F8422001232361002384F84330CDF800803B4603AA21463046FFF797FE013002D14FF0FF3026E036
:4016800023692A4639463046C0470130F5D023689B0710D5002504F1190907E001234A4639463046C0470130E7D00135E368039A9B1A9D42F2DBE068039B9842B8BF18465B
:4016C00005E00B7804F1420584F842308AE705B0BDE8F083111B0000221B000010B5C9B202449042034605D01C7801308C42F8D1184610BD002010BD884210B501EB020347
:4017000001D8421E0BE09842FBD28118D21AD34204D013F8014D01F8014DF8E710BD994204D011F8014B02F8014FF8E710BD000038B50546002944D051F8043C0C1F002BD6
:40174000B8BFE41800F0D4F81E4A1368114613B96360146030E0A3420DD92268A018834201BF18685B681218226063600C6023E0A24203D813465A68002AF9D118681918BB
:40178000A1420BD12168014458188242196013D110685268014419605A600DE002D90C232B6009E021686018824201BF106852680918216062605C602846BDE8384000F0A4
:4017C00098B838BD7C81FF1F70B5CD1C25F0030508350C2D38BF0C25002D064601DBA94202D90C23336046E000F082F8234B1C681A462146A1B10B685B1B0ED40B2B03D96B
:401800000B60CC18CD501EE08C420BBF63684B681360636018BF0C4615E00C464968E9E7174C23681BB9304600F052F820602946304600F04DF8431C18D0C41C24F00304B3
:40184000A0420DD12560304600F053F804F10B00231D20F00700C31A0ED05A42E25070BD211A304600F034F80130EBD10C233360304600F03EF8002070BD00BF7C81FF1F26
:401880007881FF1FF8B5074615460E4621B91146BDE8F840FFF798BF1AB9FFF749FF2846F8BD00F027F885420ED929463846FFF78BFF044650B131462A46FFF7EDFB314628
:4018C0003846FFF735FF01E03046F8BD2046F8BD38B5064C0023054608462360FEF75AFF431C02D1236803B12B6038BD9481FF1F7047704751F8040C0028BEBF091851F853
:40190000043CC0180438704700000000736869667420253032580A0D00000000436865636B2030783138203D3E2025640D0A0000436865636B2030783139203D3E202564AA
:401940000D0A0000426974205265706C6163656D656E742028737461676520313029206973205355434345535346554C0D0A0000426974205265706C6163656D656E742099
:4019800028737461676520313029206973204641494C5552450D0A005B4552524F525D20546865206E65772061646472657373206D757374206265206F7468657220746805
:4019C000616E2030783038210D0A00005B4552524F525D20546865206E65772061646472657373206D7573742062652030783066206F72206C6F776572210D0A000000000D
:401A00007374616765310D0A000000007374616765320D0A000000007374616765330D0A000000007374616765340D0A000000007374616765350D0A000000007374616721
:401A400065360D0A000000007374616765370D0A000000007374616765380D0A00000000655F667573655F737461676539282920726573756C74203D3E2025780D0A00004D
:401A8000496E696369616E646F0D0A0025640A0D00000000496E696369616E646F320D0A000000005465726D696E6F0D0A000000C849004019000051004010004051004039
:401AC0003000C05100401000F0510040100000000140001000140140800200170140000500400140000A004C01400002005001402000000080160140D402004880004300BC
:401B0000232D302B2000686C4C00656667454647003031323334353637383941424344454600303132333435363738396162636465660000F8B500BFF8BC08BC9E46704733
:401B40004D00000011080000F8B500BFF8BC08BC9E46704729000000681B0000C880FF1F8000000050000000000000009881FF1F0000E02EC05D00001800000000366E017F
:401B80000000000000000000000000000000000000000000000000000000000000000000FE1A0000000000000000000000000000000000000000000000000000000000000D
:401BC0000000000000000000000000000000000000000000000000000000000000000000E080FF1F0000000000000000000000000000000000000000000000000000000067
:401C000000000000000000000000000000000000000000000000000000000000000000000000000000000000000000000000000000000000000000000000000000000000A4
:401C40000000000000000000000000000000000000000000000000000000000000000000000000000000000000000000000000000000000000000000000000000000000064
:401C80000000000000000000000000000000000000000000000000000000000000000000000000000000000000000000000000000000000000000000000000000000000024
:401CC00000000000000000000000000000000000000000000000000000000000000000000000000000000000000000000000000000000000000000000000000000000000E4
:020000040003F7
:0200000480007A
:4000000003520040036500406A140140491501401416014040170140011B0140024001400141014003420140024301400645014004460140044701400448014009490140F0
:400040000B4C0140014D01400250014002510140100411081C01840F86388772010802080334041305180604082009180AC00C400E201013120C140A15101614170C188020
:400080001A20221524E0250128E02B022C032E1430103101320F331834E0352037063A083E013F414031410246BE47C0482C49FF4AFF4BFF4EF04F44500C54015804590411
:4000C0005A045B045F0166C06A406B0281808313840C8671870888108A40930C952C960397439E20A009A2D0A4DCA571A622A70EA814A971AB06AC10AEACB21FB330B4E0F3
:40010000B50FB7C0B988BA20BB20BF04C002C704C9FFCA07CBFFCC40CD20CEF0CF05D008D804D904DA04DF01E040E1A8E240E3200120028103200404060808060A080E1018
:400140000F021082111414021520170919201A401B181C041D041E101F2020012108221423402680271929242F2831083404370939143A013E093F024201432847104C80D9
:400180004F0250025110524053015608580159105A446401664082018B408C028D108F0991149204940196289E41A710AC12C06FC2AEC4FFCA66CCC2CEC7D02ED60FE220FF
:4001C000EA01000403010C0112021A0223012401280132023404350136013E143F1054185604580459045B045F010024020106400701081409800A400D010F0410A012025C
:400200001320171818041A501B811D841E062028210422022346262028102A212B112F8030063180321438243A023B403F014005410448044A014B0151015A105F02640A4F
:40024000650269146B1970B07222732078087A20800281048502C097C25FC46FCA8FCC0FCE8FD00ED20CD684D8B0EA013380CC10A7803E10A780CE209610A7800110041057
:4002800054805820C003D403901091109C20A480901091109C20A48087809610A780E6100310531083108B10AA10C010D420E020EA8010801320142079107C109010911073
:4002C0009C20A480C40EDE03AB2010011A01000303C000000010000073E70C187F080000013C00C21FFF60000280000003000004000023E30844000004C000000C18000059
:400300001C1C63E12C1F10000F3840C08000220A000004002503060001E000C022FFFFFF62A0F0410C0000000000021104040404000000010000000000004002001030100C
:400340000010101200000000000000000000000000000000000B0B000000000000222E000C00000002000102020002000400000000000000000000000000000000000000CC
:40038000000000000000000000000000000000000000000000000000000000000000000000000000000000000000000000000000000000000000000000000000000000003D
:4003C00000000000000000000000000000000000000000000000000000000000000000000000000000000000000000000000000000000000000000000000000000000000FD
:4004000000000000000000000000000000000000000000000000000000000000000000000000000000000000000000000000000000000000000000000000000000000000BC
:40044000000000000000000000000000000000000000000000000000000000000000000000000000000000000000000000000000000000000000000000000000000000007C
:0200000490006A
:0400000000004005B7
:0200000490105A
:04000000BC90ACAF55
:0200000490303A
:02000000049763
:0200000490402A
:4000000000000000000000000000000000000000000000000000000000000000000000000000000000000000000000000000000000000000000000000000000000000000C0
:400040000000000000000000000000000000000000000000000000000000000000000000000000000000000000000000000000000000000000000000000000000000000080
:400080000000000000000000000000000000000000000000000000000000000000000000000000000000000000000000000000000000000000000000000000000000000040
:4000C0000000000000000000000000000000000000000000000000000000000000000000000000000000000000000000000000000000000000000000000000000000000000
:0200000490501A
:0C00000000012E16106900012E211500D1
:00000001FF